{
  "contractName": "fms",
  "abi": [
    {
      "inputs": [
        {
          "internalType": "address",
          "name": "",
          "type": "address"
        }
      ],
      "name": "delId",
      "outputs": [
        {
          "internalType": "uint256",
          "name": "",
          "type": "uint256"
        }
      ],
      "stateMutability": "view",
      "type": "function",
      "constant": true
    },
    {
      "inputs": [
        {
          "internalType": "address",
          "name": "",
          "type": "address"
        },
        {
          "internalType": "uint256",
          "name": "",
          "type": "uint256"
        }
      ],
      "name": "fileHash",
      "outputs": [
        {
          "internalType": "string",
          "name": "fileName",
          "type": "string"
        },
        {
          "internalType": "string",
          "name": "hashValue",
          "type": "string"
        }
      ],
      "stateMutability": "view",
      "type": "function",
      "constant": true
    },
    {
      "inputs": [
        {
          "internalType": "address",
          "name": "",
          "type": "address"
        }
      ],
      "name": "id",
      "outputs": [
        {
          "internalType": "uint256",
          "name": "",
          "type": "uint256"
        }
      ],
      "stateMutability": "view",
      "type": "function",
      "constant": true
    },
    {
      "inputs": [
        {
          "internalType": "string",
          "name": "_fileName",
          "type": "string"
        },
        {
          "internalType": "string",
          "name": "_fileHash",
          "type": "string"
        }
      ],
      "name": "setFile",
      "outputs": [],
      "stateMutability": "nonpayable",
      "type": "function"
    },
    {
      "inputs": [
        {
          "internalType": "uint256",
          "name": "_id",
          "type": "uint256"
        }
      ],
      "name": "deleteFile",
      "outputs": [],
      "stateMutability": "nonpayable",
      "type": "function"
    }
  ],
  "bytecode": "0x608060405234801561001057600080fd5b5061084a806100206000396000f3fe608060405234801561001057600080fd5b50600436106100575760003560e01c80638955defb1461005c578063998efcce146100b4578063a1064eb31461010c578063a1478ed01461023f578063c5b420061461030d575b600080fd5b61009e6004803603602081101561007257600080fd5b81019080803573ffffffffffffffffffffffffffffffffffffffff16906020019092919050505061033b565b6040518082815260200191505060405180910390f35b6100f6600480360360208110156100ca57600080fd5b81019080803573ffffffffffffffffffffffffffffffffffffffff169060200190929190505050610353565b6040518082815260200191505060405180910390f35b6101586004803603604081101561012257600080fd5b81019080803573ffffffffffffffffffffffffffffffffffffffff1690602001909291908035906020019092919050505061036b565b604051808060200180602001838103835285818151815260200191508051906020019080838360005b8381101561019c578082015181840152602081019050610181565b50505050905090810190601f1680156101c95780820380516001836020036101000a031916815260200191505b50838103825284818151815260200191508051906020019080838360005b838110156102025780820151818401526020810190506101e7565b50505050905090810190601f16801561022f5780820380516001836020036101000a031916815260200191505b5094505050505060405180910390f35b61030b6004803603604081101561025557600080fd5b810190808035906020019064010000000081111561027257600080fd5b82018360208201111561028457600080fd5b803590602001918460018302840111640100000000831117156102a657600080fd5b9091929391929390803590602001906401000000008111156102c757600080fd5b8201836020820111156102d957600080fd5b803590602001918460018302840111640100000000831117156102fb57600080fd5b90919293919293905050506104cc565b005b6103396004803603602081101561032357600080fd5b8101908080359060200190929190505050610662565b005b60006020528060005260406000206000915090505481565b60016020528060005260406000206000915090505481565b600260205281600052604060002060205280600052604060002060009150915050806000018054600181600116156101000203166002900480601f0160208091040260200160405190810160405280929190818152602001828054600181600116156101000203166002900480156104245780601f106103f957610100808354040283529160200191610424565b820191906000526020600020905b81548152906001019060200180831161040757829003601f168201915b505050505090806001018054600181600116156101000203166002900480601f0160208091040260200160405190810160405280929190818152602001828054600181600116156101000203166002900480156104c25780601f10610497576101008083540402835291602001916104c2565b820191906000526020600020905b8154815290600101906020018083116104a557829003601f168201915b5050505050905082565b8383600260003373ffffffffffffffffffffffffffffffffffffffff1673ffffffffffffffffffffffffffffffffffffffff16815260200190815260200160002060008060003373ffffffffffffffffffffffffffffffffffffffff1673ffffffffffffffffffffffffffffffffffffffff168152602001908152602001600020548152602001908152602001600020600001919061056c929190610727565b508181600260003373ffffffffffffffffffffffffffffffffffffffff1673ffffffffffffffffffffffffffffffffffffffff16815260200190815260200160002060008060003373ffffffffffffffffffffffffffffffffffffffff1673ffffffffffffffffffffffffffffffffffffffff168152602001908152602001600020548152602001908152602001600020600101919061060d929190610727565b506000803373ffffffffffffffffffffffffffffffffffffffff1673ffffffffffffffffffffffffffffffffffffffff1681526020019081526020016000206000815480929190600101919050555050505050565b600260003373ffffffffffffffffffffffffffffffffffffffff1673ffffffffffffffffffffffffffffffffffffffff1681526020019081526020016000206000828152602001908152602001600020600080820160006106c391906107a7565b6001820160006106d391906107a7565b5050600160003373ffffffffffffffffffffffffffffffffffffffff1673ffffffffffffffffffffffffffffffffffffffff1681526020019081526020016000206000815480929190600101919050555050565b828054600181600116156101000203166002900490600052602060002090601f016020900481019282601f1061076857803560ff1916838001178555610796565b82800160010185558215610796579182015b8281111561079557823582559160200191906001019061077a565b5b5090506107a391906107ef565b5090565b50805460018160011615610100020316600290046000825580601f106107cd57506107ec565b601f0160209004906000526020600020908101906107eb91906107ef565b5b50565b61081191905b8082111561080d5760008160009055506001016107f5565b5090565b9056fea2646970667358221220844f16dcde2f91608551deca03a6189609fa715916687379a697eacaf481297d64736f6c63430006010033",
  "source": "// solium-disable linebreak-style\r\npragma solidity 0.6.1;\r\n\r\ncontract fms {\r\n  //Structures :\r\n  //Structure that stores the File Details\r\n  struct fileDetails{\r\n    string fileName;\r\n    string hashValue;\r\n  }\r\n\r\n  //Mappings :\r\n  //File ID for each address(user)\r\n  mapping(address=>uint) public id;\r\n  //Number of Deleted Files in each address\r\n  mapping(address=>uint) public delId;\r\n  //Mapping the files in each address with their respective File ID\r\n  mapping(address => mapping(uint => fileDetails)) public fileHash;\r\n\r\n  //Functions :\r\n  //To Upload a file\r\n  function setFile(string calldata _fileName, string calldata _fileHash) external {\r\n    fileHash[msg.sender][id[msg.sender]].fileName = _fileName;\r\n    fileHash[msg.sender][id[msg.sender]].hashValue = _fileHash;\r\n    id[msg.sender]++;\r\n  }\r\n  //To Delete a File\r\n  function deleteFile(uint _id) external {\r\n    delete fileHash[msg.sender][_id];\r\n    delId[msg.sender]++;\r\n  }\r\n}",
  "sourcePath": "/home/user/Desktop/Projects/BitBucket/FMS/FMS-Dapp-Ethereum-master/contracts/fms.sol",
  "compiler": {
    "name": "solc",
    "version": "0.6.1+commit.e6f7d5a4.Emscripten.clang"
  },
  "schemaVersion": "3.0.20",
  "updatedAt": "2020-01-08T07:41:03.906Z",
  "networkType": "ethereum",
  "devdoc": {
    "methods": {}
  },
  "userdoc": {
    "methods": {}
  }
}